{
  "_format": "hh-sol-artifact-1",
  "contractName": "Attendance",
  "sourceName": "contracts/Attendance.sol",
  "abi": [
    {
      "inputs": [],
      "stateMutability": "nonpayable",
      "type": "constructor"
    },
    {
      "anonymous": false,
      "inputs": [
        {
          "indexed": true,
          "internalType": "uint256",
          "name": "id",
          "type": "uint256"
        },
        {
          "indexed": true,
          "internalType": "uint256",
          "name": "dateKey",
          "type": "uint256"
        },
        {
          "indexed": false,
          "internalType": "address",
          "name": "by",
          "type": "address"
        }
      ],
      "name": "MarkedPresent",
      "type": "event"
    },
    {
      "anonymous": false,
      "inputs": [
        {
          "indexed": true,
          "internalType": "uint256",
          "name": "id",
          "type": "uint256"
        },
        {
          "indexed": false,
          "internalType": "string",
          "name": "name",
          "type": "string"
        },
        {
          "indexed": false,
          "internalType": "address",
          "name": "wallet",
          "type": "address"
        }
      ],
      "name": "StudentRegistered",
      "type": "event"
    },
    {
      "inputs": [
        {
          "internalType": "uint256",
          "name": "",
          "type": "uint256"
        },
        {
          "internalType": "uint256",
          "name": "",
          "type": "uint256"
        }
      ],
      "name": "attendance",
      "outputs": [
        {
          "internalType": "bool",
          "name": "",
          "type": "bool"
        }
      ],
      "stateMutability": "view",
      "type": "function"
    },
    {
      "inputs": [
        {
          "internalType": "uint256",
          "name": "id",
          "type": "uint256"
        }
      ],
      "name": "getStudent",
      "outputs": [
        {
          "internalType": "string",
          "name": "name",
          "type": "string"
        },
        {
          "internalType": "address",
          "name": "wallet",
          "type": "address"
        },
        {
          "internalType": "bool",
          "name": "exists",
          "type": "bool"
        }
      ],
      "stateMutability": "view",
      "type": "function"
    },
    {
      "inputs": [
        {
          "internalType": "uint256",
          "name": "id",
          "type": "uint256"
        },
        {
          "internalType": "uint256",
          "name": "dateKey",
          "type": "uint256"
        }
      ],
      "name": "isPresent",
      "outputs": [
        {
          "internalType": "bool",
          "name": "",
          "type": "bool"
        }
      ],
      "stateMutability": "view",
      "type": "function"
    },
    {
      "inputs": [
        {
          "internalType": "uint256",
          "name": "id",
          "type": "uint256"
        },
        {
          "internalType": "uint256",
          "name": "dateKey",
          "type": "uint256"
        }
      ],
      "name": "markPresent",
      "outputs": [],
      "stateMutability": "nonpayable",
      "type": "function"
    },
    {
      "inputs": [],
      "name": "owner",
      "outputs": [
        {
          "internalType": "address",
          "name": "",
          "type": "address"
        }
      ],
      "stateMutability": "view",
      "type": "function"
    },
    {
      "inputs": [
        {
          "internalType": "uint256",
          "name": "id",
          "type": "uint256"
        },
        {
          "internalType": "string",
          "name": "name",
          "type": "string"
        },
        {
          "internalType": "address",
          "name": "wallet",
          "type": "address"
        }
      ],
      "name": "registerStudent",
      "outputs": [],
      "stateMutability": "nonpayable",
      "type": "function"
    },
    {
      "inputs": [
        {
          "internalType": "uint256",
          "name": "",
          "type": "uint256"
        }
      ],
      "name": "students",
      "outputs": [
        {
          "internalType": "string",
          "name": "name",
          "type": "string"
        },
        {
          "internalType": "address",
          "name": "wallet",
          "type": "address"
        },
        {
          "internalType": "bool",
          "name": "exists",
          "type": "bool"
        }
      ],
      "stateMutability": "view",
      "type": "function"
    }
  ],
  "bytecode": "0x608060405234801561001057600080fd5b50336000806101000a81548173ffffffffffffffffffffffffffffffffffffffff021916908373ffffffffffffffffffffffffffffffffffffffff160217905550610fab806100606000396000f3fe608060405234801561001057600080fd5b506004361061007d5760003560e01c80637270ea881161005b5780637270ea88146101165780638da5cb5b14610146578063af331f7914610164578063d450fa45146101805761007d565b806306ead22e146100825780634e933e11146100b4578063642f9163146100e4575b600080fd5b61009c600480360381019061009791906107e4565b61019c565b6040516100ab939291906108fd565b60405180910390f35b6100ce60048036038101906100c9919061093b565b61027b565b6040516100db919061097b565b60405180910390f35b6100fe60048036038101906100f991906107e4565b6102aa565b60405161010d939291906108fd565b60405180910390f35b610130600480360381019061012b919061093b565b61039b565b60405161013d919061097b565b60405180910390f35b61014e6103d7565b60405161015b9190610996565b60405180910390f35b61017e60048036038101906101799190610a42565b6103fb565b005b61019a6004803603810190610195919061093b565b610639565b005b60016020528060005260406000206000915090508060000180546101bf90610ae5565b80601f01602080910402602001604051908101604052809291908181526020018280546101eb90610ae5565b80156102385780601f1061020d57610100808354040283529160200191610238565b820191906000526020600020905b81548152906001019060200180831161021b57829003601f168201915b5050505050908060010160009054906101000a900473ffffffffffffffffffffffffffffffffffffffff16908060010160149054906101000a900460ff16905083565b60026020528160005260406000206020528060005260406000206000915091509054906101000a900460ff1681565b60606000806000600160008681526020019081526020016000209050806000018160010160009054906101000a900473ffffffffffffffffffffffffffffffffffffffff168260010160149054906101000a900460ff1682805461030d90610ae5565b80601f016020809104026020016040519081016040528092919081815260200182805461033990610ae5565b80156103865780601f1061035b57610100808354040283529160200191610386565b820191906000526020600020905b81548152906001019060200180831161036957829003601f168201915b50505050509250935093509350509193909250565b600060026000848152602001908152602001600020600083815260200190815260200160002060009054906101000a900460ff16905092915050565b60008054906101000a900473ffffffffffffffffffffffffffffffffffffffff1681565b60008054906101000a900473ffffffffffffffffffffffffffffffffffffffff1673ffffffffffffffffffffffffffffffffffffffff163373ffffffffffffffffffffffffffffffffffffffff1614610489576040517f08c379a000000000000000000000000000000000000000000000000000000000815260040161048090610b62565b60405180910390fd5b6001600085815260200190815260200160002060010160149054906101000a900460ff16156104ed576040517f08c379a00000000000000000000000000000000000000000000000000000000081526004016104e490610bce565b60405180910390fd5b604051806060016040528084848080601f016020809104026020016040519081016040528093929190818152602001838380828437600081840152601f19601f8201169050808301925050505050505081526020018273ffffffffffffffffffffffffffffffffffffffff1681526020016001151581525060016000868152602001908152602001600020600082015181600001908161058d9190610dc9565b5060208201518160010160006101000a81548173ffffffffffffffffffffffffffffffffffffffff021916908373ffffffffffffffffffffffffffffffffffffffff16021790555060408201518160010160146101000a81548160ff021916908315150217905550905050837ee7355a114c82d9220dc5a07dd1d8da1d12753cb8320d9059ddb4cdd2145a1e84848460405161062b93929190610ed7565b60405180910390a250505050565b60008054906101000a900473ffffffffffffffffffffffffffffffffffffffff1673ffffffffffffffffffffffffffffffffffffffff163373ffffffffffffffffffffffffffffffffffffffff16146106c7576040517f08c379a00000000000000000000000000000000000000000000000000000000081526004016106be90610b62565b60405180910390fd5b6001600083815260200190815260200160002060010160149054906101000a900460ff1661072a576040517f08c379a000000000000000000000000000000000000000000000000000000000815260040161072190610f55565b60405180910390fd5b600160026000848152602001908152602001600020600083815260200190815260200160002060006101000a81548160ff02191690831515021790555080827f42cc32fe254c9527cd3874bea8e351da85e3ffa294113ca3d18d0dc4f7a02e8a336040516107989190610996565b60405180910390a35050565b600080fd5b600080fd5b6000819050919050565b6107c1816107ae565b81146107cc57600080fd5b50565b6000813590506107de816107b8565b92915050565b6000602082840312156107fa576107f96107a4565b5b6000610808848285016107cf565b91505092915050565b600081519050919050565b600082825260208201905092915050565b60005b8381101561084b578082015181840152602081019050610830565b60008484015250505050565b6000601f19601f8301169050919050565b600061087382610811565b61087d818561081c565b935061088d81856020860161082d565b61089681610857565b840191505092915050565b600073ffffffffffffffffffffffffffffffffffffffff82169050919050565b60006108cc826108a1565b9050919050565b6108dc816108c1565b82525050565b60008115159050919050565b6108f7816108e2565b82525050565b600060608201905081810360008301526109178186610868565b905061092660208301856108d3565b61093360408301846108ee565b949350505050565b60008060408385031215610952576109516107a4565b5b6000610960858286016107cf565b9250506020610971858286016107cf565b9150509250929050565b600060208201905061099060008301846108ee565b92915050565b60006020820190506109ab60008301846108d3565b92915050565b600080fd5b600080fd5b600080fd5b60008083601f8401126109d6576109d56109b1565b5b8235905067ffffffffffffffff8111156109f3576109f26109b6565b5b602083019150836001820283011115610a0f57610a0e6109bb565b5b9250929050565b610a1f816108c1565b8114610a2a57600080fd5b50565b600081359050610a3c81610a16565b92915050565b60008060008060608587031215610a5c57610a5b6107a4565b5b6000610a6a878288016107cf565b945050602085013567ffffffffffffffff811115610a8b57610a8a6107a9565b5b610a97878288016109c0565b93509350506040610aaa87828801610a2d565b91505092959194509250565b7f4e487b7100000000000000000000000000000000000000000000000000000000600052602260045260246000fd5b60006002820490506001821680610afd57607f821691505b602082108103610b1057610b0f610ab6565b5b50919050565b7f6f6e6c79206f776e657200000000000000000000000000000000000000000000600082015250565b6000610b4c600a8361081c565b9150610b5782610b16565b602082019050919050565b60006020820190508181036000830152610b7b81610b3f565b9050919050565b7f616c726561647920657869737473000000000000000000000000000000000000600082015250565b6000610bb8600e8361081c565b9150610bc382610b82565b602082019050919050565b60006020820190508181036000830152610be781610bab565b9050919050565b7f4e487b7100000000000000000000000000000000000000000000000000000000600052604160045260246000fd5b60008190508160005260206000209050919050565b60006020601f8301049050919050565b600082821b905092915050565b600060088302610c7f7fffffffffffffffffffffffffffffffffffffffffffffffffffffffffffffffff82610c42565b610c898683610c42565b95508019841693508086168417925050509392505050565b6000819050919050565b6000610cc6610cc1610cbc846107ae565b610ca1565b6107ae565b9050919050565b6000819050919050565b610ce083610cab565b610cf4610cec82610ccd565b848454610c4f565b825550505050565b600090565b610d09610cfc565b610d14818484610cd7565b505050565b5b81811015610d3857610d2d600082610d01565b600181019050610d1a565b5050565b601f821115610d7d57610d4e81610c1d565b610d5784610c32565b81016020851015610d66578190505b610d7a610d7285610c32565b830182610d19565b50505b505050565b600082821c905092915050565b6000610da060001984600802610d82565b1980831691505092915050565b6000610db98383610d8f565b9150826002028217905092915050565b610dd282610811565b67ffffffffffffffff811115610deb57610dea610bee565b5b610df58254610ae5565b610e00828285610d3c565b600060209050601f831160018114610e335760008415610e21578287015190505b610e2b8582610dad565b865550610e93565b601f198416610e4186610c1d565b60005b82811015610e6957848901518255600182019150602085019450602081019050610e44565b86831015610e865784890151610e82601f891682610d8f565b8355505b6001600288020188555050505b505050505050565b82818337600083830152505050565b6000610eb6838561081c565b9350610ec3838584610e9b565b610ecc83610857565b840190509392505050565b60006040820190508181036000830152610ef2818587610eaa565b9050610f0160208301846108d3565b949350505050565b7f6e6f20737563682073747564656e740000000000000000000000000000000000600082015250565b6000610f3f600f8361081c565b9150610f4a82610f09565b602082019050919050565b60006020820190508181036000830152610f6e81610f32565b905091905056fea264697066735822122080042fa079221a7d6b5823d92f28cbfbb812d5b0a4de3f1c41eb8048cfa8a15164736f6c63430008140033",
  "linkReferences": {},
  "deployedLinkReferences": {}
}